S00E000061746D6567612E73726563A7
S11300000C9434000C943E000C943E000C943E007E
S11300100C943E000C943E000C943E000C943E0064
S11300200C943E000C943E000C943E000C943E0054
S11300300C943E000C943E000C943E000C943E0044
S11300400C943E000C943E000C943E000C943E0034
S11300500C943E000C943E000C943E000C943E0024
S11300600C943E000C943E0011241FBECFEFD8E048
S1130070DEBFCDBF0E94C3000C94CC000C940000E2
S113008088B18B7F88B988B1846088B9089588B1B4
S11300908D7F88B988B1826088B908952BB11BB867
S11300A08230910571F01CF4019739F00895833082
S11300B0910559F0049769F008958BB181608BB96B
S11300C008958BB182608BB908958BB184608BB92C
S11300D008958BB188608BB908950F931F93CF93C4
S11300E0DF938C010E944700C0E0D0E00DC088B1CE
S11300F0902F9170892B88B90E944000159507951F
S113010088B18E7F88B92196C031D10584F30E94CD
S11301104700DF91CF911F910F910895EF92FF92C5
S11301200F931F93CF93DF938C01EE24E394F12C70
S11301301FC0C7010E944E00C0E0D0E013C0C80138
S11301400C2E02C0969587950A94E2F70E946D00E2
S11301508FEF93EC29E0815090402040E1F700C0FC
S113016000002196C031D10554F38FEFE81AF80A44
S113017095E0E916F104ECF2DF91CF911F910F9114
S1130180FF90EF9008958FEF8AB987B918B880E08F
S10F019090EF0E948E00FBCFF894FFCF8C
S9030000FC
